:1000000000CC00203DAA020861730208FDA202088C
:1000100075730208897302089D73020800000000CE
:10002000000000000000000000000000B1730208A2
:10003000C573020800000000F14D00086BA2020821
:10004000A5AC0208A9AC0208ADAC0208CB77020847
:10005000B5AC0208B9AC0208B1750208BD76020859
:100060000D770208C9AC0208CDAC0208D1AC020879
:10007000D5AC0208D9AC0208DDAC0208E1AC02083C
:10008000E5AC0208E9AC0208EDAC0208F1AC0208EC
:10009000F5AC0208F9AC0208FDAC020801AD02089B
:1000A00005AD020809AD02080DAD020811AD020848
:1000B00015AD020819AD02081DAD020821AD0208F8
:1000C00025AD020829AD02082DAD0208DD73020836
:1000D00035AD020839AD02083DAD020841AD020858
:1000E0006F770208537802084DAD020851AD02083F
:1000F00055AD020859AD02085DAD020861AD0208B8
:1001000065AD020869AD02086DAD020871AD020867
:1001100075AD020879AD02087DAD020881AD020817
:1001200085AD020889AD02088DAD020891AD0208C7
:1001300095AD020899AD02089DAD0208A1AD020877
:10014000A5AD0208A9AD0208ADAD0208B1AD020827
:10015000B5AD0208B9AD0208BDAD0208C1AD0208D7
:10016000C5AD0208C9AD0208CDAD0208D1AD020887
:10017000D5AD0208D9AD0208DDAD0208E1AD020837
:10018000E5AD0208E9AD020838B50020ADF8000081
:10019000044601F0E0FC05464FF48051204601F092
:1001A0001BFF0A21284601F0A5FE00E0641C062C76
:1001B00012D2DFF8600D215C8DF800102018007A53
:1001C0008DF80100022300AA7221072001F093FD9F
:1001D0000028EBD1002032BD012032BD2DE9FC41C9
:1001E0000446884602F020F806460020ADF80400D8
:1001F000DFF8245D288D0746B8F1000F02D02043B8
:10020000288501E0A0432885012000900DF1060318
:10021000AB227221062001F0B0FD002801D10020A0
:100220005EE1288D0E2800F24081DFE810F00F001B
:100230003E011C003E013A003E013A003E01AB0087
:100240003E01AB003E01AB003E01AB0080208DF8CB
:10025000040000208DF805009DF8060000F0FD0068
:100260008DF8060021E181208DF8040001ACEE201C
:100270006070022301AA7221092001F03CFD0028D0
:1002800001D100202CE16078E87280208DF8040014
:10029000032060709DF8060000F0FD008DF8060058
:1002A00003E19D208DF8040001AC00206070022362
:1002B00001AA7221092001F01EFD002801D10020B1
:1002C0000EE19E208DF8040000206070022301AA38
:1002D0007221092001F00FFD002801D10020FFE06C
:1002E00081208DF80400FD206070022301AA722194
:1002F000092001F000FD002801D10020F0E0607825
:10030000E8728E208DF80400E87B002812D00C21C2
:100310008F2002F05AF804218F2002F02DF83021AE
:10032000902002F052F83021902002F025F845206C
:10033000607011E00C218F2002F047F80B218F2014
:1003400002F01AF83021902002F03FF8112190209D
:1003500002F012F882206070022301AA72210920A3
:1003600001F0C9FC002801D10020B9E080208DF8FF
:100370000400272060709DF8060000F0FD008DF855
:10038000060092E03846000701D402F0E2F881202E
:100390008DF8040001ACFE206070022301AA7221D6
:1003A000092001F0A8FC002801D1002098E0607825
:1003B000E8728E208DF80400E87B002812D00C2112
:1003C0008F2002F002F804218F2001F0D5FF3021A8
:1003D000902001F0FAFF3021902001F0CDFF4B205A
:1003E000607011E00C218F2001F0EFFF0B218F20B6
:1003F00001F0C2FF3021902001F0E7FF3121902071
:1004000001F0BAFF83206070022301AA7221092043
:1004100001F071FC002801D1002061E0380714D4FC
:10042000B6F87A00B6F87C10401AE884B6F87A106C
:100430004900A98489B2B1F5807F01D3FF21A98445
:10044000A98C80B2A1EB4000E884A6208DF80400BE
:10045000E87B00280AD06021A32001F0B6FF20210C
:10046000A32001F089FF5720607009E06021A320DC
:1004700001F0ABFF4121A32001F07EFF8B206070D3
:10048000022301AA7221092001F035FC002801D1C4
:10049000002025E080208DF80400672060709DF822
:1004A000060040F002008DF80600022301AA722126
:1004B000092001F020FC002801D1002010E0AB2031
:1004C0008DF804009DF806008DF80500022301AAAE
:1004D0007221092001F00FFC401E8041C043C00F73
:1004E000BDE8F68110B534220021DFF8E80B02F0F8
:1004F0000DFADFF8244A0120607302F011FA01F0CE
:100500008DFF0120A074E07410BD10B582B00FF211
:10051000580001F09BFB0020ADF8000080208DF812
:10052000000000AC00206070022300AA72210620A7
:1005300001F0E1FB002816D08C208DF8000000208F
:100540006070DFF8D40900218172022300AA7221B1
:10055000062001F0D0FB002805D0FFF7C3FF0121E2
:100560000020FFF73BFE13BD233E484C5300000024
:1005700010B582B00FF2400001F068FB0020ADF82A
:100580000000044600E0641C052C12D2DFF8BC0D0C
:10059000215C8DF800102018007A8DF801000223EC
:1005A00000AA7221072001F0A6FB0028EBD1002051
:1005B00016BD012016BD0000233E50525000000021
:1005C0001CB50FF2880001F041FB0020ADF80400DB
:1005D0008DF8060001F028FE80208DF8040001ACA3
:1005E00000206070022301AA7221062001F083FB23
:1005F000002801D1002016BD8C208DF804000020B9
:100600006070DFF8CC4DA072022301AA722106208F
:1006100001F071FB002801D1002016BD01202074DB
:1006200001460420FFF7DAFD002801D1002016BDA5
:10063000012000900DF10603E5227221072001F050
:100640009CFB401E8041C043C00F16BD233E50524C
:100650004F00000000B583B00FF2640001F0F6FA1D
:100660000020ADF806008DF8040001F0DDFD8020CB
:100670008DF8060000208DF8070002230DF1060218
:100680007221062001F037FB002801D100200EBDA9
:10069000DFF83C0D002101740420FFF79FFD0028C6
:1006A00001D100200EBD0120009001ABE522722196
:1006B000072001F062FB401E8041C043C00F0EBD09
:1006C000233E5052430000000120704730B583B0F4
:1006D00004460020ADF80400DFF83C58687D00288F
:1006E00028D1012000900DF10503932272210620EC
:1006F00001F043FB00280DD09DF80500800724D5AC
:100700000120009001AB9C227221062001F035FBF4
:10071000002801D100203EBD9DF80400A97E51FAB9
:1007200080F080B2400820702078A8759DF8040001
:10073000A8760AE0012808D1DFF898094169AA7E65
:100740008918491021704069A87601203EBD2DE925
:10075000F04792B00446884601F066FD054601F078
:10076000FAF906460020ADF80800ADF80C008DF847
:100770000A00012000900DF10A0393227221062045
:1007800001F0FBFA002801D1002079E1042000905B
:1007900003AB94227221062001F0EFFA002801D168
:1007A00000206DE1DFF870779DF80D009DF80C10CA
:1007B00041EA0020DFF8041D4843F97AC1F5807151
:1007C0003A7BDFF8FC3CD25C12FB01F140F2423292
:1007D0005143B0FBF1F042F2117188420AD300207C
:1007E0003875F87B00281DD10120F873FFF78DFEC6
:1007F000012045E141F65831884211D2F87B0028AA
:100800000ED09DF80A0080060CD5387D411C397544
:10081000652807D30020F873FFF777FE01202FE14A
:10082000002038759DF80A00800640F128810020DC
:1008300078754146601CFFF749FFB87C002802D05C
:100840000020B8740EE1DFF8148D607888F800009D
:10085000787B00280AD001F0EBFD002806D1787CD7
:10086000002803D0607801F0F5FD87E0387C00288F
:1008700039D0787CB97A084335D1002030758C2086
:100880008DF808000DF10809202089F80100B872E0
:10089000022302AA7221062001F02DFA002801D1BC
:1008A0000020EDE089208DF80800002089F8010083
:1008B000022302AA7221072001F01DFA002801D1AB
:1008C0000020DDE08B208DF80800B5F87A0089F86B
:1008D0000100022302AA7221072001F00CFA00286D
:1008E00001D10020CCE0787C00280ED105F17A00FF
:1008F0004288B5F87A100FF2901001F0A7F96178EC
:100900000FF2941001F0A2F938E0414684B0684635
:10091000182202F0ABFB0FBC02F013F804A802F09F
:1009200076F8DFF86C9D484604A9342202F09EFB5D
:1009300099F81C00002814D097F808A03420DFF89C
:10094000941710FB0A104946342202F08FFB0AF17B
:1009500001003872C0B2092801D3401E387201204C
:10096000787209F11C00417D88F81410817D88F8A7
:100970001510007D002801D0FFF7B4FD387C002859
:1009800070D0787C00286DD16078B5F87A108842F4
:1009900031D3307D00282ED10120B873207020780B
:1009A000307589208DF808000DF1080905F17A00ED
:1009B000408889F80100022302AA7221072001F071
:1009C0009AF9002801D100205AE08B208DF8080008
:1009D000FF2089F80100022302AA7221072001F0FA
:1009E0008AF9002801D100204AE061780FF2B400B2
:1009F00001F02CF936E005F17A00408861788842F0
:100A000030D3307D01282DD10120B8730020207013
:100A10002078307589208DF808000DF10809002034
:100A200089F80100022302AA7221072001F063F96C
:100A3000002801D1002023E08B208DF80800B5F8B4
:100A40007A0089F80100022302AA7221072001F02E
:100A500052F9002801D1002012E061780FF24C0019
:100A600001F0F4F80120009003ABE5227221072089
:100A700001F083F9401E8041C043C00F00E0002018
:100A800012B0BDE8F0870000233E55703D25642C70
:100A90004C6F3D2564000000233E505241572025F5
:100AA00064000000233E503120256400233E503274
:100AB000202564002DE9F84304460D46DFF858640C
:100AC000F07D002804D000F0FFFD00203083B3E06B
:100AD00001F0AAFB804600273846ADF800002078D8
:100AE000072823D16078FF2820D12946601CFFF712
:100AF000EDFD6078B8F87A10884208D301202070A4
:100B0000627821780FF2341001F0A0F80CE0B8F808
:100B10007C006178884207D338462070627821785B
:100B20000FF2181001F092F8012085E000203083C8
:100B300029462046FFF70BFE00280DD0307C002808
:100B40000AD0B07B002807D00FF2041001F07EF825
:100B50000020B07301207076707C002866D0DFF82A
:100B6000BC8DD8F8189009F10C00417DC068D9F807
:100B70000C20801800F0D2F9002857D001203076E0
:100B8000707A002801D000207072307C00284BD091
:100B9000D9F80C0040780DF1000989F80100B18CFA
:100BA000814212D200F0D7FF007D00280DD1F07EE7
:100BB000401CF076C0B2022821D10020F076012737
:100BC00000F0C9FF3946017519E099F80100F18C70
:100BD000884212D200F0BFFF007D01280DD1F07EC7
:100BE000401CF076C0B2022809D10020F07601271F
:100BF00000F0B1FF0021017501E00020F076002F28
:100C000012D0D8F81C8000F0A6FF007D8DF80000FF
:100C100008F10C00427D00A9C068D8F80C30C0185B
:100C200002F04FFA012070760020307203F03CFA97
:100C300000283FF47BAF707EBDE8F283233E536C07
:100C40006565702041444320256420256400000030
:100C5000233E50555000000070B582B0064600207B
:100C6000ADF8000001F0E0FA04463078A4F87A000C
:100C700004F27A0570786880B4F87A00002802D00F
:100C80006888002808D10FF25C0000F0DFFF7820B0
:100C9000A4F87A000020688089208DF8000000AE5A
:100CA00068887070022300AA7221072001F023F8DF
:100CB000002801D1002076BD8B208DF80000B4F80B
:100CC0007A007070022300AA7221072001F013F845
:100CD000002801D1002076BD0FF64C5000F0B6FF81
:100CE000012076BD233E5054483D300080B50FF2C0
:100CF0001801072003F000FE0FF230010A20BDE8C2
:100D0000044003F0F9BD000071050008C1050008AA
:100D100055060008C906000800000000B50A0008D2
:100D2000590C0008000000000000000071050008D8
:100D3000C105000855060008C906000800000000AB
:100D4000CD060008590C000800000000000000005B
:100D500010B582B00FF6D84000F078FF0020ADF853
:100D60000000FFF711FA002803D10FF6CC4000F085
:100D70006DFF002400E0641C0B2C12D2DFF8680C1D
:100D80002118097B8DF80010205C8DF801000223EA
:100D900000AA7221062000F0AEFF0028EBD100204F
:100DA00016BD012016BD10B582B00FF6984000F0B8
:100DB0004DFF0020ADF8000001F036FA80208DF8DC
:100DC000000000AC00206070022300AA72210620FF
:100DD00000F091FF002801D1002016BD8C208DF875
:100DE000000000206070DFF8044CA072022300AA0B
:100DF0007221062000F07FFF002801D1002016BDDF
:100E000001206074FFF76EFB01210820FFF7E6F96F
:100E1000401E8041C043C00F16BD80B50FF62C4068
:100E200000F014FF0020ADF8000001F0FDF9802073
:100E30008DF8000000208DF80100022300AA722125
:100E4000062000F058FF002801D1002002BDDFF885
:100E50009C0B002141740820FFF7C0F9401E80411F
:100E6000C043C00F02BD0120704770B58EB02A4C40
:100E7000607B002814D001F0DBFA002810D0DFF8E6
:100E8000DC56281D0FC801F08CFB01F0DAFA0028AF
:100E90003CD000206073012068752875A87535E086
:100EA000607B002832D1DFF8B456294684B068460A
:100EB000182202F0DBF80FBC01F076FD00A801F06B
:100EC000A6FDDFF8CC67304600A9342202F0CEF848
:100ED00006F11C00417D2975817D6975007D002822
:100EE00001D0FFF7FFFA307F00280FD0257A342099
:100EF000784910FB05103146342202F0B7F8681C1F
:100F00002072C0B2092801D3401E207201200EB009
:100F100070BD0000B4370020F4360020FEB5044652
:100F200002A8002101600846ADF8040001F07CF938
:100F30000120009001AB93227221062000F01DFFDA
:100F4000002800F0A9809DF8040010F0040005D1ED
:100F5000DFF8981A497A002900F09E80002806D010
:100F6000DFF8880A417A002901D101214175012069
:100F700000900DF10503AE227221062000F0FDFE67
:100F8000002800F089809DF80500002842D0042048
:100F9000009002ABFC227221062000F0EEFE002839
:100FA0007AD09DF80850DFF8B415DFF8400A02AA9D
:100FB000437B002B1FD0DFF8383A1E7855FA86F5B0
:100FC0006D104D6055785E7856FA85F676108E6015
:100FD00096789F7857FA86F77F10CF60D278DF78BF
:100FE00057FA82F77F100F619DF8081019705D7035
:100FF0009E70DA7006E04D6053788B609378CB601A
:10100000D2780A61C17C002902D00021C17441E07C
:10101000FFF72BFF2F4908782070486960708869B6
:10102000A0704868E07088682071C86860710869BD
:10103000A071086AE071486A2072886A6072C86AA2
:10104000A072487FE072DFF8AC0900782073DFF807
:10105000A80900786073DFF8A4090078A073DFF8AE
:10106000A0090078E073DFF89C0900782074DFF8AD
:10107000980900786074DFF894090078A074DFF8AC
:101080006C09827DE274002202720878042801D182
:10109000104608700120FEBD0020FEBDDFF84C099F
:1010A000007E704780B5052802D1084600F002F89E
:1010B000012002BD80B5017841F04103DFF8281915
:1010C000CB70027801780FF68C1000F0BFFD012084
:1010D00002BD000084A5002070B584B00446002045
:1010E000019002A8002101600E4601F09DF80FF664
:1010F000781000F0ABFD01210820FFF76FF8A02069
:101100008DF806000DF106053046687002230DF1DA
:1011100006027221062000F0EEFD002801D13046C3
:10112000B6E0A1208DF80600FF20687002230DF1C3
:1011300006027221062000F0DEFD002801D13046B3
:10114000A6E0AB208DF806000120687002230DF1A7
:1011500006027221062000F0CEFD002801D13046A3
:1011600096E00120009001AB80227221062000F061
:1011700004FE002801D130468AE080208DF8060068
:101180009DF8040040F04500687002230DF106024E
:101190007221062000F0AFFD002801D1304677E033
:1011A000012000900DF10503AF227221062000F00E
:1011B000E4FD002801D100206AE09DF80500C00789
:1011C0000BD50420009002ABFC227221062000F017
:1011D000D4FD00280CD100205AE03046461CB0F562
:1011E0007A7FDDDB0FF6880000F030FD00204FE055
:1011F0009DF80800207002A8417861708178A17084
:10120000C078E0700120009001AB8022722106209E
:1012100000F0B3FD002801D1002039E080208DF8D6
:1012200006006B48007C00289DF8040003D000F005
:10123000BF0068700CE000F0BB006870DFF8D007FA
:101240000078002804D19DF8040000F0BA0068700E
:1012500002230DF106027221062000F04CFD002849
:1012600001D1002014E0AB208DF80600002068704A
:1012700002230DF106027221062000F03CFD002839
:1012800001D1002004E000210820FEF7A7FF012083
:1012900004B070BD0FF66001062003F02DBB10B541
:1012A00082B00FF2D87000F0D1FC0020ADF8000041
:1012B000044600E0641C052C12DADFF85807215CB4
:1012C0008DF800102018007A8DF80100022300AA82
:1012D0007221092000F00FFD0028EBD1002016BD7F
:1012E000012016BD00B583B00FF2987000F0AEFC7F
:1012F0000020ADF8060000F097FF80208DF8060072
:1013000000208DF8070002230DF10602722106204D
:1013100000F0F1FC002801D100200EBDDFF8F0063E
:10132000012101700220FEF759FF002801D10020A1
:101330000EBD0120009001ABE6227221072000F0D3
:101340001CFD401E8041C043C00F0EBDC4370020AD
:1013500000B583B00FF2347000F078FC0020ADF8D7
:10136000060000F061FF80208DF8060000208DF857
:10137000070002230DF106027221062000F0BBFCDB
:10138000002801D100200EBD0120009001AB8F226A
:101390007221072000F0F1FC002801D100200EBDD1
:1013A000DFF86C06002101700220FEF717FF00280D
:1013B00001D100200EBD0120009001ABE622722178
:1013C000072000F0DAFC401E8041C043C00F0EBD74
:1013D000F4360020012070473EB504460020ADF8E9
:1013E000040002908DF80600012000900DF1060324
:1013F00093227221062000F0C0FC00283BD09DF80B
:101400000600C00744D50220009001AB962272214D
:10141000092000F0B2FC00282DD09DF804002070B7
:1014200001AD687860700220009001AB98227221B3
:10143000092000F0A2FC00281DD09DF80400A07037
:101440006878E0700220009001AB9A227221092096
:1014500000F093FC00280ED09DF8040020716878FD
:1014600060710220009001AB94227221092000F0EB
:1014700084FC002801D100203EBD9DF80400A0712D
:101480006878E071DFF86405C17A2172007B6072D0
:101490006078217841EA0020E178A27842EA0121CF
:1014A0006279237943EA0222E379A47944EA0323A7
:1014B00002AC009400F054F801203EBD6094060098
:1014C000F41A00081CB504460020ADF806008DF89B
:1014D00004000120009001AB8F227221092000F04E
:1014E0004CFC002801D1002016BD9DF8040000F03E
:1014F000FC008DF80400012C0AD0042C04D0102C20
:1015000020D0402C23D027E040F001008DF80400CB
:101510008F208DF806009DF804008DF80700DFF895
:10152000CC049DF8041001F00301017302230DF1B6
:1015300006027221092000F0DEFB401E8041C043FC
:10154000C00F16BD40F002008DF80400E0E740F047
:1015500003008DF80400DBE7002016BDACA80020D6
:101560002DE9F04114460D460646A8192018C01A68
:10157000401C47103FB2002F00D50027DFF86C1445
:10158000087B0FF27052805CC97AC1F5807110FB44
:1015900001F240F6DC2C0CFB02F88902B1F5803F29
:1015A00001D34FF6FF71C9000A22B1FBF2F11028F6
:1015B00032D18B4230D30120FFF784FF002843D083
:1015C000EA1BE11B0698B74206DA0368F61B06EB36
:1015D000460C03EB8C030360AF4205DA03684FF45B
:1015E0007A7505FB02320260A74205DA02684FF401
:1015F000DD7303FB112101600168002901D5002181
:101600000160016841F2D80251430160B1FBF8F179
:1016100001600120BDE8F081102807D1642B05D2BC
:101620004020FFF74FFF0028CAD10DE0402802D12B
:1016300064398B4203D20128C2D1642BC0D210205E
:10164000FFF740FF0028BBD10020E3E70FF2CC41B9
:10165000092003F051B910B5E44C29202070002076
:1016600060700A20A0703120E0700A2020713220C2
:101670006071A0710020E0770120E075072221460B
:10168000E54801F01EFD00206077012010BD00003C
:1016900038A6002000B583B000A800210A4606C085
:1016A0000722D2490DF1010001F00BFDA0208DF8B9
:1016B0000000082300AA7221072000F01CFB401E36
:1016C0008041C043C00F0EBD00B583B000208DF82F
:1016D0000400C648417F8177828DFF2A0BD0002A03
:1016E0000CD0C37F5B1CC377521E8285DBB299424C
:1016F00001D20021C17700F01CF80DE090F8201015
:10170000012903D100F03AF901200EBDC18D818578
:101710000021C17700F00DF80120009001ABE32219
:101720007221072000F029FB401E8041C043C00FFA
:101730000EBD38B50020ADF80000AC4CA08D0028DF
:1017400003D1E08DA085A07F60770722E07FC0EB0A
:10175000C000B1494118204601F0B3FCFFF79AFFE1
:1017600080208DF8000000AD81206870022300AA5F
:101770007221072000F0BFFA002801D1002032BDFD
:10178000A7208DF80000608D6870022300AA7221E6
:10179000072000F0B0FA401E8041C043C00F32BDA8
:1017A00030B585B0044600208DF80C0060790290B9
:1017B00020790190E0780090A378627821780FF288
:1017C000D42000F043FA0120009003AB8022722164
:1017D000072000F0D2FA002801D1002021E0834840
:1017E0009DF80C10017700F067F88C4D8122FF21E5
:1017F000284601F08BF880222146681C01F061FC2C
:101800000020287081232A467221072000F073FAF5
:10181000002805D10FF2942000F018FA002000E013
:10182000012005B030BD80B501780F2904DA6F4A78
:10183000527F521C8A4205DA0FF27C2000F006FA31
:10184000002002BDC1EBC101734A29238B548918C2
:1018500000224A7042788A7182788A70C278CA708F
:1018600002790A7140794871012002BD5F48417FC9
:10187000491C41770120704780B55C498885002864
:1018800000D0C88501460FF2402000F0DFF90120AA
:1018900002BD564981F820000120704780B560499B
:1018A000087009784900514A518501460FF22820F5
:1018B00000F0CCF9012002BD00B583B00020ADF8E6
:1018C00006008DF8040080208DF8060001208DF8B8
:1018D000070002230DF106027221072000F00BFA27
:1018E000002801D100200EBD102000904D4BA022F9
:1018F0007221072000F041FA002801D100200EBD1E
:101900000120009001AB80227221072000F035FAFF
:10191000401E8041C043C00F0EBD000000000020EB
:1019200000B587B00020ADF8000001A8142103F035
:1019300011FA80208DF8000001208DF801000223AB
:1019400000AA7221072000F0D6F9002801D100205A
:1019500012E0102233490DF1050001F0B2FBA02086
:101960008DF80400112301AA7221072000F0C3F9A9
:10197000401E8041C043C00F07B000BD1CB5002011
:10198000ADF806008DF8040000F04EFC174C217FE6
:101990000FF2541000F05AF90020E075E0776077FC
:1019A000A08584F82000FFF7BBFF80208DF806009B
:1019B000207F8DF8070002230DF106027221072017
:1019C00000F099F9002801D1002016BD01200090F7
:1019D00001ABE3227221072000F0CFF9401E8041C5
:1019E000C043C00F16BD00004C370020F436002065
:1019F00084AB0020DBAB002000AB002001AB00205B
:101A000002AB002003AB002005AB002006AB00209A
:101A1000D9AB0020D4370020DC7A0020C099002008
:101A2000DAAB002084A90020233E544853455400DB
:101A3000233E474550000000233E47504641494C55
:101A400000000000233E47454F000000233E47456D
:101A5000430000003D3E4745204355202578202582
:101A60007820257800000000233E4753454C46006F
:101A7000233E47535445525200000000233E4C4938
:101A800047500000233E4C49474F0000233E4C493D
:101A9000474300004D4244202564202564202564EE
:101AA0002025642025642025640000004D6F6265B8
:101AB000616D2057460000004D6F6265616D2048E2
:101AC0006F70204661696C004D4220486F70436F13
:101AD000756E7420256400004D6F6265616D204C49
:101AE000656E3D25640000004D4220436C6F7365B8
:101AF0002025640001041040510D0008A70D0008C6
:101B00001B0E0008670E0008000000009D10000872
:101B100000000000D9100008A51000089F1200085E
:101B2000E512000851130008D5130008000000005A
:101B3000D9130008000000000000000000000000B1
:101B400010B5DFF86C464FF48E720021204600F08D
:101B5000DDFE204610BDDFF85806704710B5FFF7D0
:101B6000EFFF044600231A461146084600F04CFADF
:101B7000C046C04601F0BCFA204600F018F801F05B
:101B8000FFFC204600F0B2F9204600F014F8204691
:101B900000F018F800F073F900206072A072E07293
:101BA0002073012060730020E075012010BD00212A
:101BB000C17101722BE010B5044601F040FB012019
:101BC000607110BD10B5044601F0A7FB0120A071A3
:101BD00010BD38B50446012501F052FC012804D19E
:101BE0002846E0700020A0700AE0022804D10020FE
:101BF000E0702846A07003E00020E070A070054669
:101C0000284632BD80B501F081FD012002BD10B52E
:101C10000446E07901F084FE0121217010BD70B509
:101C200004460025E679E171FFF7F1FF002807D0AF
:101C30002046FFF7C0FF2046FFF7C4FF012503E061
:101C4000E6712046FFF7E3FF284670BD0EB470B57D
:101C5000C1B0054600A84FF4807103F07BF8FFF790
:101C60007AFF044645AB2A464FF4807100A803F082
:101C700081F800A803F09CF8451C00A82818002152
:101C800000F8011CDFF82C653078401C307003F040
:101C90000AF97078401C7070207E2818FF2810DA2E
:101CA000207E002803D0207E00190A2101762A46D2
:101CB00000A9207E0019193001F003FA207E2818AF
:101CC00020767078401E7070C0B2002801D103F0F9
:101CD000E4F803F08BF941B070BC5DF810FB042808
:101CE000DFF8B40403D8DFF8B41401607047DFF8FC
:101CF000C814016070472DE9F84305460E461746A3
:101D00004FF0020803F0CFF8DFF8A8446078401CD9
:101D100060709DF80000401E8DF8000017F8019BD0
:101D20002846FFF7DCFF00AB4A463946304601F053
:101D30001FFE002809D06078401E6070C0B20028E5
:101D400001D103F0AAF8012015E05FFA88F84246B5
:101D500029460FF27840FFF779FF4046A0F10108CD
:101D60000028E0D16078401E6070C0B2002801D128
:101D700003F093F80020BDE8F2832DE9F047044614
:101D80000D4616461F460898DFF8148488F80000B0
:101D900003F089F8DFF81C9499F80100401C89F8D9
:101DA00001002046FFF79BFF4FF0020A43463246F0
:101DB0003946284601F086FE00280BD099F801002C
:101DC000401E89F80100C0B2002801D103F065F877
:101DD000012017E05FFA8AFA524621460FF2F830E6
:101DE000FFF734FF5046A0F1010A0028DED199F830
:101DF0000100401E89F80100C0B2002801D103F0A3
:101E00004CF80020BDE8F0872DE9F84305460E4662
:101E1000174698464FF0020903F045F8DFF894435F
:101E20006078401C60702846FFF759FF42463946EB
:101E3000304601F039FF002809D06078401E6070FC
:101E4000C0B2002801D103F028F8012015E05FFAA4
:101E500089F94A4629460FF28C30FFF7F7FE4846CB
:101E6000A0F101090028E1D16078401E6070C0B285
:101E7000002801D103F011F80020BDE8F28302F040
:101E8000A9BEF8B5044600273D46CC4E0DE03946C4
:101E90004F1EC9B200290AD1002804D120690121AE
:101EA000A9408843206100276D1C142D10DA56F8D4
:101EB0002500006E006880470128E8D121690122D1
:101EC000AA401143216156F8251001220A77E3E761
:101ED0002069032805D02069022802D02069012842
:101EE00003D1206940F480502061F1BD01F0D0BFE2
:101EF00002F04FB881B00022ADF80220ADF800200A
:101F0000C079042808D0062809D008280AD0092852
:101F10000BD00A280CD00EE04FF4C8600DE04FF44F
:101F200048600AE04FF4C85007E04FF4FA5004E06C
:101F300042F2107001E041F27070ADF802200DE045
:101F4000BDF80020521CADF80020BDF800208242F0
:101F5000F6DBBDF80220521CADF80220BDF80220CD
:101F60008A4203D20022ADF80020EEE701B07047AC
:101F7000417210B58CB003F0C5F80446FFF7EBFDD5
:101F80000021ADF82A1001910A218DF808100021D6
:101F90008DF809108DF80A10407A00280DD0002C19
:101FA00018D008468DF80000052001900B208DF810
:101FB000080000A804F05CFE0CE0002C0AD0012010
:101FC0008DF80000052001900B208DF8080000A876
:101FD00004F04EFE0CB010BD02F002B802F00AB8D8
:101FE00001210846F8E701210846F7E70221012010
:101FF000F2E702210120F1E702F006B810B504462D
:10200000FFF7A9FD447510BDF8B54FF47A743C266E
:102010004FF4616C10FB0CF511FB065545FA82F587
:1020200004FB05355F4F97F900E01EFB0CFC97F9A8
:1020300001E01EFB06C697F902C046FA8CF6B7F916
:1020400003C004FB06C4AC4206D32A4621460FF265
:10205000A010BDE8F840F9E50FD22E1BA6F2D17C06
:10206000DFF85CE1F44508D333462A4621460FF2F7
:10207000901001B0BDE8F040E8E53870002801D5C7
:10208000183038707970BA70A7F80330F1BD10B508
:1020900004002FD003F0E9F842498A68002A00D0F2
:1020A000841AB1F80320A218A1F8032012B2B2F5E5
:1020B0007A7F06DBA2F57A72A1F803208A78521C97
:1020C0008A7091F902203C2A04DB3C3A8A704A78F3
:1020D000521C4A7091F901203C2A04DB3C3A4A70B8
:1020E0000A78521C0A7091F90020182A01DB00229C
:1020F0000A70886010BD2B49052200F0A7BF0000C0
:102100000FB470B52DED028B1546274E284604F00E
:10211000E1FE0022254B04F0EBFE306171619FED82
:10212000298B069804F0D6FE53EC182B04F0E0FE41
:1021300030607160079C204604F0CCFE53EC182BF5
:1021400004F0D6FEB060F1609DF8240030769DF872
:10215000250070769DF82600B0769DF82700F07671
:102160009DF828003077BDF82900A6F81D00BDF8BD
:102170002B00A6F81F002B46224606990FF294006A
:10218000FFF764FDBDEC028B70BC5DF814FB0649E3
:10219000222200F05BBF00002C38002000540040D9
:1021A000DDAB00206CAA002058A7002000408F4023
:1021B0004C8E0020243700200058004000000020F2
:1021C0005F4C26050000000080842E4149574520C1
:1021D00025642025640000004952452025642025FF
:1021E0006400000049524F4520256420256400000A
:1021F00041542D53657454533120256420256400C7
:1022000041542D5365745453322025642025642095
:102210002564000050443A20536574506F732025A4
:10222000642025642025640000487047A0980020A1
:1022300000214FF0804200E092089042FCD3002A37
:1022400009D05318984203D3401A801A01EB420177
:1022500049089208F3E708467047002802D400F0C6
:102260007F0002E0404240F08000C0B2704700F0C2
:102270007F01802800D349420846704730B40446A5
:102280000D46A54200DA2C461546A54200DA2C463A
:10229000A34200DA1C46204630BC704730B40446E6
:1022A0000D46AC4200DA2C461546AC4200DA2C460C
:1022B0009C4200DA1C46204630BC70471849002278
:1022C0004A608A600861C860704770B50546144C62
:1022D000A0682169626823689A4214DB91FBF3F6D7
:1022E000266190FBF3F0FFF7A3FFA060072804DB53
:1022F0002846FFF7E3FF002070BDE660256100215E
:102300006160A16070BD521C626069182161E16862
:10231000491B01FB0100A060002070BD000000000F
:10232000643700200EB47FB5044608A80FC80C9D82
:1023300005FB00F6009605FB01F6019605FB03F68A
:10234000039605FB02F00290204600A9102200F03F
:102350008DFE04B070BC5DF810FB10B40C181C1995
:10236000101910BC70470A7822EA00000870704704
:102370000A7810430870704730B583B004460D46A4
:102380000020ADF806000120009001AB224672212A
:102390000720FFF7F2FC002801D100203EBD01A973
:1023A0002846FFF7E5FF8DF806409DF804008DF8FC
:1023B000070002230DF1060272210720FFF79BFCA4
:1023C000401E8041C043C00F3EBD30B583B00446BF
:1023D0000D460020ADF806000120009001AB22461A
:1023E00072210720FFF7C9FC002801D100203EBD63
:1023F00001A92846FFF7B7FF8DF806409DF80400B5
:102400008DF8070002230DF1060272210720FFF765
:1024100072FC401E8041C043C00F3EBDDFF8E404A3
:1024200000210170C17008214170817000F01DBB56
:10243000DFF8D0040078032801D101207047002084
:102440007047DFF8C0040078042801D101207047EC
:102450000020704738B50546FFF77DFBDFF8A44440
:10246000207800280ED10F219F20FFF7AEFF062114
:102470009F20FFF781FF012020700020E0700120E5
:10248000207231BD012831D1207A002833D1E07883
:1024900002280AD061784908A94206D30120E070D9
:1024A00000F0B6F8002853D10BE0012809D0A0783D
:1024B0004008A84205D20220E07000F0CBF80028C6
:1024C00046D1E078012802D10020E07031BD022021
:1024D00020700020E0700F219F20FFF776FF092178
:1024E0009F20FFF749FF0120207231BD02282FD124
:1024F000207A002802D00020207231BDE078022826
:1025000009D060784008A84205D30120E07000F0AF
:10251000C2F800281CD1E078012809D0A078400832
:10252000A84205D20220E07000F0D7F800280FD1B1
:10253000E078012802D10020E07031BD0F219F20FA
:10254000FFF743FF032020700020E070012020727D
:1025500031BD38B50020ADF80000DFF8AC4320787D
:10256000FFF785FE9D218DF8001000ADFFF775FE89
:102570006870022300AA72210720FFF7BCFB002825
:102580000ED06078FFF773FE9E218DF80010FFF7E4
:1025900064FE6870022300AA72210720FFF7ABFBDC
:1025A00031BD3FB581B0D74C207803282ED101A88A
:1025B0000FC8FFF763FE054601A80FC8FFF76EFEC0
:1025C000E17802290BD06278AA4208DB0120E07092
:1025D00001A80FC800F0A2F8002817D10CE00129CB
:1025E0000AD0A178814207DA0220E07001A80FC862
:1025F00000F010F9002809D1E078012802D100206C
:10260000E07003E0042020700020E07005B030BDD1
:1026100010B582B00020ADF80000BB4C2078FFF769
:1026200026FE10F17F0F01D1002016BD9D218DF8EF
:102630000010401EFFF711FE8DF8010020700223EC
:1026400000AA72210720FFF756FB401E8041C043BD
:10265000C00F16BD10B582B00020ADF80000AA4C26
:102660002078FFF704FE7F2801D1002016BD9D21B0
:102670008DF80010401CFFF7F0FD8DF80100207070
:10268000022300AA72210720FFF735FB401E80417C
:10269000C043C00F16BD10B582B00020ADF80000D9
:1026A000994C6078FFF7E3FD10F17F0F01D1002016
:1026B00016BD9E218DF80010401EFFF7CEFD8DF84F
:1026C00001006070022300AA72210720FFF713FBAC
:1026D000401E8041C043C00F16BD10B582B000201F
:1026E000ADF80000884C6078FFF7C1FD7F2801D16C
:1026F000002016BD9E218DF80010401CFFF7ADFD97
:102700008DF801006070022300AA72210720FFF7F4
:10271000F2FA401E8041C043C00F16BD3FB581B0E4
:1027200000252846ADF80000764C01986178884273
:1027300017DA2079FFF79BFD10F17F0F11D0A4214C
:102740008DF80010401EFFF788FD00A94870207129
:10275000022300AA72210720FFF7CDFA002853D0E8
:10276000012502986178884217DA6079FFF77FFDCA
:1027700010F17F0F11D0A5218DF80010401EFFF73A
:102780006CFD00A948706071022300AA7221072025
:10279000FFF7B1FA002837D0012503986178884205
:1027A00017DAA079FFF763FD10F17F0F11D0A72191
:1027B0008DF80010401EFFF750FD00A94870A07171
:1027C000022300AA72210720FFF795FA00281BD0E8
:1027D000012504986178884219DAE079FFF747FD0E
:1027E00010F17F0F13D0A9218DF80010401EFFF7C4
:1027F00034FD00A94870E071022300AA722107206D
:10280000FFF779FA002801D1002001E001252846D0
:1028100005B030BD3FB581B000252846ADF80000B9
:10282000384CA0780199884216DA2079FFF71FFD0D
:102830007F2811D0A4218DF80010401CFFF70DFD5A
:1028400000A948702071022300AA72210720FFF717
:1028500052FA002850D00125A0780299884216DA51
:102860006079FFF704FD7F2811D0A5218DF80010B5
:10287000401CFFF7F2FC00A948706071022300AA17
:1028800072210720FFF737FA002835D00125A078FC
:102890000399884216DAA079FFF7E9FC7F2811D066
:1028A000A7218DF80010401CFFF7D7FC00A9487045
:1028B000A071022300AA72210720FFF71CFA00284A
:1028C0001AD00125A0780499884218DAE079FFF738
:1028D000CEFC7F2813D0A9218DF80010401CFFF7F3
:1028E000BCFC00A94870E071022300AA72210720F5
:1028F000FFF701FA002801D1002001E00125284658
:1029000005B030BDFCAA002005AB002010B5044680
:1029100010460A460146204604F00EFC204610BD33
:10292000DFF800070021C161DFF8FC1600220A77FA
:1029300001224A7700221046086381F82000C877F8
:1029400070470FB410B5DFF8DC469DF81D00411E3E
:102950008941C90F6177201D03A9102200F086FB71
:10296000DFF8C4069DF81E104177002180F8201082
:1029700001779DF80810002907D1217F4A1C227792
:1029800006290ED3012101770BE000202077607F1C
:1029900000289DF8080002D100F015F901E000F0D0
:1029A0009DF810BC5DF814FB0FB438B5DFF8744621
:1029B0009DF82400411E8941C90FE177201D05A91A
:1029C000102200F053FBDFF860569DF82600687770
:1029D00005A80FC8FFF762FC60616861002085F8F8
:1029E00020002877E07F002804D105A80FC800F058
:1029F0008FF909E0A07F002805A80FC802D000F0D9
:102A0000C0F901E000F0E2F931BC5DF814FBF0B56B
:102A10000446DFF8185605F11C06DFF80806C17FEA
:102A20004A1E9241D20F7275407F411E8941C90FE3
:102A3000B175DFF8F475387F307597F82000287786
:102A4000284639461C2200F011FBB87F707005F152
:102A50002000DFF8DC15102200F008FB2046294694
:102A60003422BDE8F04000F001BB10B582B0002078
:102A7000ADF80000A0208DF8000000AC00206070D0
:102A8000DFF8B00500210170022300AA722107209F
:102A9000FFF731F9002801D1002016BDA1208DF8E3
:102AA0000000FF206070022300AA72210720FFF7B8
:102AB00022F9002801D1002016BD8021A320FFF7B4
:102AC0005BFC3C21A220FFF757FCDFF858050021F2
:102AD0008177DFF854050163012016BD10B5044667
:102AE000DFF84005807F0028204602D0BDE8104076
:102AF0000BE000F01EF8DFF83005C07F002803D19E
:102B00002046BDE8104038E010BD10B5DFF818458C
:102B1000E07F01280CD1201DDFF81C15102200F0E9
:102B2000A5FA04202070012084F820000020E0771E
:102B300010BD10B5DFF8F044E17F012909D100F0A4
:102B4000C9F8002802D00420E07710BD0020E06220
:102B500010BD002909D100F0B5F8002802D00220EC
:102B6000E07710BD0020E06210BDE06A411CE16228
:102B70000B2801DB0020E06210BD10B5044600F018
:102B800055F8204600F05DF8204600F065F8204634
:102B900000F06DF8DFF88C04416A01EB8102D1008E
:102BA000642291FBF2F1826B436B9A4204DAC06AB1
:102BB000052290FBF2F003E0806A142290FBF2F011
:102BC000BDE810408EE038B5044600F014F8204609
:102BD00000F01AF8DFF84C54686A00EB8001C80076
:102BE000642190FBF1F104EB8400400000F07AF8DE
:102BF0000120687731BDDFF82C144FF4FA620A62C5
:102C0000C8224A62FFF75ABBDFF81814C82212FB29
:102C100000F28A62322212FB00F2CA6200EB8002EA
:102C200052000A6348638863C863704710B5014661
:102C3000DFF8F04304F130020A2000F025F8E063E9
:102C400010BD10B50146DFF8DC4304F12C02322040
:102C500000F01AF8A06310BD10B50146DFF8C443B8
:102C600004F12802C82000F00FF8606310BD10B511
:102C7000FFF72BFB642101FB00F4002C02D020465F
:102C800000F013F8204610BD10B400EBD0735B10B9
:102C90001468091900FB0131441C91FBF4F1116027
:102CA000591891FBF0F010BC704710B5014601298E
:102CB00000DA0121DB4C04F120020A20FFF7E4FFD7
:102CC000606210BDD849496A814201DA012070472B
:102CD00000207047D449896A884201DA0120704790
:102CE00000207047B0F5207F01DD4FF420700A29E5
:102CF00001DA0A2102E0652900DB64210818401D81
:102D00000A2190FBF1F0C0B2C7494862886270475F
:102D100080B500F004F8C3480121C17701BD0FB5AB
:102D200087B0C820019007A883B069460CC80CC1C1
:102D30000CC80CC10EBC02A8FFF7F4FABF4802A9E8
:102D4000102200F093F90A20019007A883B0694689
:102D50000CC80CC10CC80CC10EBC02A8FFF7E2FAEB
:102D6000B74802A9102200F081F9B64807A910223D
:102D700000F07CF9B44807A9102200F077F90BB0F5
:102D800000BD00BF1FB5A84CE07F002802D001287D
:102D90000ED01FBD0020A061201D00A9102200F050
:102DA00065F902202070012084F82000E0771FBD23
:102DB000201D00A9102200F059F901202070A069FF
:102DC000401CA061012084F820001FBD1FB5964C57
:102DD000E07F002803D0012084F8200003E000A851
:102DE0000FC800F037F800A80FC800F00AF8607F9D
:102DF000002805D0206B662802DBBDE81F40D8E024
:102E00001FBD1FB5884CE07F012804D002280DD0DB
:102E1000042817D01FBD201D00A9102200F026F99C
:102E200001202070A069401CA0611FBD0020A0618E
:102E3000201D00A9102200F019F9022020700120A5
:102E4000E0771FBD042020700020E077012084F887
:102E500020001FBDFFB585B07348016B491C01639D
:102E600005A883B069460CC80CC10CC80CC10EBCC7
:102E700001A800F025F805A883B069460CC80CC16C
:102E80000CC80CC10EBC01A800F040F86E4C94E8D0
:102E90000F00FFF762FA0546654E6A4F97E80F008C
:102EA000FFF75BFA8542304604DA2146102200F033
:102EB000DDF803E03946102200F0D8F809B0F0BD83
:102EC0000EB430B588B004460BAD0BA80FC885E82A
:102ED0000F005A4802900BA882B069460CC80CC17A
:102EE0000CC80CC10CBCC82103A800F035F8554D26
:102EF000284603A9102200F0B9F8204629461022DE
:102F000000F0B4F808B030BC5DF810FB0EB430B57A
:102F100088B004460BAD0BA80FC885E80F004848E1
:102F200002900BA882B069460CC80CC10CC80CC139
:102F30000CBC0A2103A800F00FF8434D284603A952
:102F4000102200F093F820462946102200F08EF857
:102F500008B030BC5DF810FB0CB47FB504460D46DC
:102F600008AE08A80FC886E80F000C9E324601463E
:102F70002846FFF789FE0090321D09992846FFF781
:102F800083FE019006F10C020B992846FFF77CFEA8
:102F9000039006F108020A992846FFF775FE029091
:102FA000204600A9102200F061F804B070BC5DF862
:102FB0000CFB38B50020ADF800001B4CA06AA077D0
:102FC000A0208DF8000000AD606A6870687819492B
:102FD0000870022300AA72210720FEF78CFE002849
:102FE00001D1002032BDA1208DF80000A07F6870C3
:102FF000022300AA72210720FEF77DFE002801D1DE
:10300000002032BD8021A320FFF7DFF93C21A22060
:10301000FFF7DBF903480121817700202063084690
:1030200032BD000004A500206CA60020A0A6002050
:10303000D4A90020DBAB002008A5002094A9002023
:10304000B4A90020A4A90020C4A9002062B38B0762
:1030500008D0521E11F8013B00F8013B00F024801B
:103060008B07F6D1830740F0208000BF103A07D3CA
:1030700030B4B1E83810103AA0E83810F9D230BCBA
:10308000530724BFB1E80810A0E8081044BF51F866
:10309000043B40F8043BD20724BF31F8022B20F850
:1030A000022B44BF0B7803707047083A07D3B1E88E
:1030B0000810083A40F8043B40F804CBF7D2530715
:1030C000E4E710B50446FFF7C1FF204610BD50F8F5
:1030D000041B61B150F8042BD30744BFA9F10103CD
:1030E0009A18002342F8043B091FFAD1EFE7704712
:1030F0007CB50121032004F0B4F8DFF8A84B20468A
:1031000004F02EF9DFF8845D284604F029F9012047
:103110008DF8040000208DF8050001208DF80600D0
:1031200000208DF80700012128460183C0460120B8
:10313000009000A9284604F06FF902212846018377
:10314000C0460220009000A9284604F065F901203D
:103150008DF8040000208DF80500ADF806004FF44E
:103160008056009600A9284604F056F931462846B4
:103170004183C04601208DF8040000208DF8050031
:1031800001208DF8060000208DF80700009600A9A8
:10319000204604F041F9314620464183C0460422CE
:1031A0000621284604F086F904220721284604F067
:1031B00081F902208DF8040001208DF805008DF8BA
:1031C000060000208DF807004020009000A9284646
:1031D00004F022F98020009000A9284604F01CF990
:1031E00004220A21284604F065F909220321284611
:1031F00004F060F902208DF8040001208DF805002C
:103200008DF8060000208DF807004FF480600090D4
:1032100000A9284604F000F90820009000A92846DB
:1032200004F0FAF8286820F0300040F01000286020
:10323000206820F0300040F01000206073BD2DE9C0
:10324000FF4101214FF4001004F016F80121022083
:1032500004F007F801214FF4804004F018F8012130
:103260004FF4001004F029F800214FF4001004F08E
:1032700024F80020ADF804004BF6FF74ADF80640CA
:103280004FF48065ADF80A504FF480463046ADF8F3
:103290000C000A20ADF80800DFF85C7C0097DFF82E
:1032A0005C8C00A9404604F048F90121404604F036
:1032B000A7F90A20ADF80800009701214FF480001B
:1032C00003F0DAFF0121022003F0CBFF01214FF4CC
:1032D000800003F0F2FF00214FF4800003F0EDFFC7
:1032E0000020ADF80400ADF80640ADF80A50ADF886
:1032F0000C600A20ADF808000097DFF8044C00A924
:10330000204604F01AF90121204604F079F9DFF88B
:10331000C40CC0F80080BDE8FF812DE9F04192B0F7
:1033200001214FF4805003F0B2FF0121084603F061
:1033300098FF01214FF4800003F093FFDFF8644908
:1033400005221146204604F0B5F805220721204643
:1033500004F0B0F805220621204604F0ABF805225F
:103360000421204604F0A6F802208DF80400012074
:103370008DF805000020ADF806002020009000A97F
:10338000204604F049F88020009000A9204604F06F
:1033900043F84020009000A9204604F03DF810209A
:1033A000009000A9204604F037F8DFF8F04B2046E3
:1033B00004F088F9DFF8E85B0020288068600120CD
:1033C000288100206881E86007202882002068802A
:1033D000DFF8046C304604F0E5F9DFF8007C38468D
:1033E00004F0E0F94FF48060069000210D91032174
:1033F0000E9100210F910A910890DFF8B80C03900C
:1034000008461090099007904FF400300C90084641
:103410000B904FF0C068CDF808804020059008461A
:10342000049002A9304604F041FA00200B90CDF838
:103430000880059005F11400049002A9384604F0B4
:1034400035FA002068802946204604F06AF90122F6
:103450000221204604F094F901221146204604F08E
:103460008FF90121204604F07FF90021304604F055
:1034700044FA0021384604F040FA12B0BDE8F08169
:1034800010B588B001214FF0805003F0F5FE012106
:103490004FF4802003F0E5FE012004F097FA0F209E
:1034A00004F044FC0446012003F0D8FE002003F0A1
:1034B000D5FE002C01D004F0FBFE012003F070FECD
:1034C000412003F010FF0028FAD04FF4807003F081
:1034D000AFFE012003F0BFFE04F0CBFA3F200690C0
:1034E00040F2FF1007900020059005A804F078FA3C
:1034F0000020029002A904F0DDFA00208DF80700F8
:1035000001208DF804008DF805008DF8060001A952
:10351000002004F048FB4FF4800005F017F84FF44A
:103520008000039000208DF8100008208DF8110015
:1035300001208DF8120003A804F0C6FF03208DF8C7
:1035400000000D208DF8010000208DF80200012000
:103550008DF8030000A805F006F8032004F097FB9F
:103560004FF4804004F04DFC4FF4800004F0EEFF77
:1035700001214FF4804004F00AFC012008B010BD86
:1035800030B585B00121084603F06BFE01214FF4F0
:10359000804003F07CFE00208DF810008DF81300B1
:1035A00001200390DFF8FC5603A9284603F034FFFE
:1035B0004FF40064039403A9284603F02DFF042070
:1035C000039003A9284603F027FF0021084605F0D1
:1035D00003F80B21002004F0FFFF0221002004F07B
:1035E000FBFF00208DF8080001208DF80A000190F3
:1035F0000C208DF8090001A804F066FF01940C204E
:103600008DF8090001A804F05FFF204604F09EFF3A
:10361000042001900C208DF8090001A804F054FF4B
:10362000042004F093FF28208DF800000F208DF86F
:10363000010000208DF8020001208DF8030000A891
:1036400004F091FF05B030BD30B58DB004460121C6
:103650004FF4807003F01BFE00A803F017FF0A2050
:10366000009003208DF8040000208DF8070000A9C9
:10367000DFF8300603F0D0FE04F0C2FF02A805F028
:1036800004F84FF48030039002A804F0F0FF06A87D
:1036900004F0E3FFDFF85C5C06A9284604F0BDFFF8
:1036A000072301222146284605F000F8012128467B
:1036B00005F041F80121284604F0EDFF0DB030BDC2
:1036C00038B5DFF8304C204605F030F84FF47A7505
:1036D0000221204605F046F8002803D12846451E61
:1036E0000128F5DA2046BDE8324005F02FB880B554
:1036F0000021DFF8000C04F0CEFF00214FF48070B1
:10370000BDE8044003F0C3BD0000000038B504006C
:1037100039D0012004F05AF9002004F0D2FA4FF415
:103720000055042004F04EFB012804D12846451E14
:1037300080B20028F5D100EE104AB8EE400ADFED65
:103740008A0A80EE800AF0EE000A20EE200ADFED01
:10375000870A80EE800ABDEEC00A10EE100A401EF5
:1037600080B204F0A4FA4FF4804004F04AFB4FF416
:10377000800004F0EBFE012004F0A3FADFF8940BC4
:103780000121416031BD012004F020F90020BDE895
:10379000324004F096BA000030B401460120002304
:1037A000DFF8742B1C469460946814F00C0FFBD166
:1037B0000C460B2C55D8DFE804F02054545406195D
:1037C0002031383F464D946844F080049460DFF81F
:1037D0004C4B4FF4C0652560146824F0807414606D
:1037E000DFF83C4BDFF83C5B25603BE00346DFF84D
:1037F000304BDFF8345B256034E094689460DFF888
:103800001C4B4FF4C0652560146824F0807414606C
:10381000DFF80C4BDFF8145B256023E00223DFF8B0
:10382000004BDFF80C5B25601CE00323DFF8F04A57
:10383000DFF8005B256015E00423DFF8E44ADFF8D9
:10384000F85A25600EE00523DFF8D44ADFF8EC5A79
:10385000256007E00623DFF8C84ADFF8E45A256050
:1038600000E01846002B4AD003EBC3030FF63434B4
:103870001B1994689460146824F0807414601468B0
:1038800024F0806414609C781D8844EA8514DD78F7
:103890006D086D1E44EA05441D7944EA05645460D0
:1038A000DC881D7A2D0745EA8414DFF8985A2C60CD
:1038B000146844F0807414601468A401FCD55B792A
:1038C00043F4C063DFF8544A2360936893609368BD
:1038D0009360052904D1916841F09001916005E061
:1038E0000A2903D1916841F480519160916841F0B7
:1038F00002019160916801F00C010829FAD1DFF80A
:10390000201A0968DFF8402A914207D2DFF83C1AF2
:103910000A6822F4404242F480420A6030BC704798
:103920003AE710B5DFF8284A0121206803F0A1FE2C
:10393000206803F0D3FDBDE8104080E430B40022DD
:10394000838A008BDFF8084A656843EA0040084034
:10395000000255EA102060600840884200D1012230
:10396000104630BC7047000000007A440000004759
:103970002DE9F84F04460D4616464FF420491F78AE
:10398000DFF850864FF40031D8F8000003F07CFED9
:10399000002808D04846A0F101090028F2D1FFF71D
:1039A000C0FF00208CE0D8F8000001884FF6FF52DD
:1039B000114001800121D8F8000003F02DFE4FF4E2
:1039C000805AD1460020C8F80400D8F800B0DFF8CB
:1039D00084195846FFF7B2FF002805D14846A0F1E8
:1039E00001090028F1D163E0D14600222146584662
:1039F00003F02AFE0020C8F80400D8F80040DFF8E1
:103A000058192046FFF79AFF002805D14846A0F133
:103A100001090028F1D14BE03146C9B220460182AC
:103A2000C046D1460020C8F80400D8F80040DFF8AE
:103A30002C192046FFF782FF002805D14846A0F147
:103A400001090028F1D133E0012F15D12978204652
:103A50000182C046D1460020C8F80400DFF80019F2
:103A6000D8F80000FFF76AFF002823D14846A0F1EC
:103A700001090028F2D11BE03846471EC0B20028D9
:103A800018D015F8011BD8F800000182C046D146B5
:103A90000020C8F80400DFF8C818D8F80000FFF7C5
:103AA0004DFF0028E8D14846A0F101090028F2D1D5
:103AB000002005E00121D8F8000003F0B9FD012045
:103AC000BDE8F28F2DE9F54F81B00D461E464FF44B
:103AD00020483778DFF8FC444FF40031206803F0C9
:103AE000D3FD002808D04046A0F101080028F3D1FA
:103AF000FFF717FF0020D3E0206801884FF6FF5240
:103B0000114001800121206803F086FD4FF48059A7
:103B1000C84600206060DFF83CA8D4F800B05146E9
:103B20005846FFF70BFF002805D14046A0F10108D9
:103B30000028F2D191E000229DF80410584603F0CD
:103B400083FDC84600206060D4F800B0DFF8081894
:103B50005846FFF7F3FE002805D14046A0F10108C2
:103B60000028F1D179E0BDF80810C9B258460182A9
:103B7000C046C846DFF8EC17206803F085FD002832
:103B800005D14046A0F101080028F3D165E00121EC
:103B9000206803F041FDC84600206060D4F800B002
:103BA00051465846FFF7CAFE002805D14046A0F10D
:103BB00001080028F2D150E001229DF80410584677
:103BC00003F042FD022FC84639D2DFF89C17206867
:103BD00003F05AFD002805D14046A0F10108002855
:103BE000F3D13AE00021206803F037FD2068018B13
:103BF000012103F01DFDC846DFF87017206803F0AF
:103C000043FD002805D14046A0F101080028F3D16A
:103C100023E02068008AC0B228703078401E3070DF
:103C2000C84620680188890505D54046A0F10108ED
:103C30000028F6D111E0012103F00FFD2BE0002058
:103C40006060DFF82C172068FFF778FE002806D1A7
:103C50004046A0F101080028F3D1002020E0012611
:103C600016E0012F0CD1012E0AD100263146206822
:103C700003F0F3FC2068818A018B012103F0D8FC5A
:103C80002068818A490603D5008A05F8010B7F1E4A
:103C9000FFB2002FE5D10121206803F0DEFC0120F6
:103CA000BDE8FE8F000002402DE9F04707460D46B3
:103CB00016464FF42048C74C4FF40031206803F0FB
:103CC000E3FC002808D04046A0F101080028F3D109
:103CD000FFF727FE00208DE0206801884FF6FF5295
:103CE000114001800121206803F096FC4FF48059B7
:103CF000C84600206060D4F800A0DFF8581650468F
:103D0000FFF71CFE002805D14046A0F1010800285D
:103D1000F1D14CE001223946504603F095FC022EC9
:103D2000C84636D2DFF84016206803F0ADFC002804
:103D300005D14046A0F101080028F3D137E0002169
:103D4000206803F08AFC2068018B012103F070FCDD
:103D5000C846DFF81816206803F096FC002805D145
:103D60004046A0F101080028F3D120E02068008A35
:103D7000C0B22870C84620680188890505D540462C
:103D8000A0F101080028F6D111E0012103F065FC43
:103D90002BE000206060DFF8D8152068FFF7CEFD2B
:103DA000002806D14046A0F101080028F3D10020E8
:103DB00020E0012716E0012E0CD1012F0AD10027A7
:103DC0003946206803F049FC2068818A018B012173
:103DD00003F02EFC2068818A490603D5008A05F885
:103DE000010B761EF6B2002EE5D10121206803F00A
:103DF00034FC0120BDE8F087DFF878050168082968
:103E000033D1DFF814150A6842F080720A60426804
:103E1000B2F1806F03D10A6842F080620A600A68DA
:103E20009201FCD58A6842F002028A608A6802F038
:103E30000C02082AFAD14268B2F1806F02D10A68F6
:103E40001201FCD5DFF8D8140968DFF8FC24914290
:103E500007D2DFF8F8140A6822F4404242F48042A4
:103E60000A6000210160416070474168B1F1806FD4
:103E70000AD1DFF8A4140A6842F080620A600A6876
:103E80001201FCD50021416070470000000402408F
:103E9000DFF8E404016841F080510160DFF8AC0410
:103EA00001688908890041F001010160DFF86404BC
:103EB0000FF205010160704710B5DFF8C04420889B
:103EC00040F004002080DFF84C04416800290DD048
:103ED00000214160DFF8A8140A6842F004020A6079
:103EE0000FF22101016000F00DF800E030BF6088A2
:103EF00040F00400608010BD801A060000540040AD
:103F00000058004038B5DFF87444208840F00400C1
:103F10002080FDF720FE807A012803D1012003F0E4
:103F200058FD02E0002003F054FDDFF854548021D6
:103F30001A4803F02FFC002819D172B6DFF8D80315
:103F4000DFF83014826802F00C020A60006800F0AA
:103F500080604860286840F00400286030BF62B686
:103F6000286820F004002860FFF746FF0CE0608816
:103F700040F004006080286820F00400286030BF12
:103F8000286840F004002860608840F004006080E9
:103F900031BDDFF8800300680047000000300140B9
:103FA00034A70020DFF8DC13012806D010D3032843
:103FB00009D005D3042809D00AE0DFF8CC1307E0C4
:103FC000DFF8C81304E0DFF8C81301E0DFF8C4131A
:103FD000084670472C380020886402401064024074
:103FE00010B50C46FFF7DEFF214689B2BDE8104050
:103FF00003F05CBA10B50C46FFF7D4FF214689B236
:10400000BDE8104003F054BAE0B500238DF8083045
:1040100001238DF80A30002A03D10C228DF80920E3
:1040200002E008228DF8092004283CD8DFE800F0DF
:10403000030D192222004FF40060019028208DF812
:1040400000000F208DF801001CE0184601901020A0
:104050008DF8090006208DF800000E208DF8010073
:1040600010E00220019007208DF800000F208DF84D
:10407000010007E00420019008208DF800000F20C7
:104080008DF8010000208DF80200012903D11846A7
:104090008DF8030001E08DF8030001A804F014FA84
:1040A00000A804F060FA07BD4FF40061B54803F0C2
:1040B000F6B900000C30014080B57B2003F013F905
:1040C000002806D08CA0FDF7C1FD03F022F90020E6
:1040D00002BD7A2003F007F9002802D087A0FDF77F
:1040E000B5FD792003F0FFF8002802D084A0FDF789
:1040F000ADFD7C2003F0F7F8002802D081A0FDF789
:10410000A5FD7D2003F0EFF8002802D07EA0FDF78A
:104110009DFD7E2003F0E7F8002802D07BA0FDF78C
:1041200095FD7F2003F0DFF8002802D078A0FDF78E
:104130008DFD03F0EEF8012002BD00003EB50C46F7
:1041400015460422014602A8FEF7BBFF04222146C1
:1041500001A8FEF7B6FF0422294600A8FEF7B1FF2A
:1041600002A9002003F0A6FC01A9002003F01BFD1A
:1041700003F014FD0446884A002300981946101ADB
:1041800063EB0101490241EAD051400204F014FB03
:104190000090844205D2011B4FF0004003F0D3FD94
:1041A00037BDA04207D2C4F50070009909184FF03E
:1041B000004003F0C8FD37BD2DE9704384B00446CC
:1041C0000D46164602A9002003F0C3FC01A90020F9
:1041D00003F039FD03F0E2FC00906F4AA2FB008976
:1041E0004FEA582848EAC958A2EB08000090042278
:1041F00002A92046FEF765FF042201A92846FEF722
:1042000060FF042200A93046FEF75BFFBDE87F8314
:10421000F0B4049C059D8E1E012E01DA0C36401E62
:104220003C216427B0FBF7F7C7EB90074FF4C87C3D
:10423000B0FBFCFC674440F26F1C0CFB06F64FF031
:104240000C0CB6FBFCF6F619921940F26D1606FB43
:104250000020524A101800EB400203EBC20001FBA1
:10426000004001FB0050F0BC70471CB50C460168D3
:104270000191416800918368C2680169491C4069E5
:1042800000F26C70FFF7C4FF2060002016BD10B56F
:104290008EB04348046801A9002003F05AFC00A92D
:1042A000002003F0D0FC9DF8040006909DF8050066
:1042B00005909DF8060004909DF80100401E0890AE
:1042C0009DF8020007909DF803006430099002A950
:1042D00004A8FFF7CAFF4FF47A706043400AC0F5A4
:1042E0007A700390029A4FF47A73C117E3FB0201CC
:1042F0000EB010BD00200140504F520050494E00FA
:10430000424F520053465400495744005757440007
:104310004C50570008AB002000380240003C0240DF
:10432000B037002000127A00809698000024F40034
:1043300000366E010048E801005A620280F0FA027D
:1043400000BD0105843802400187930300700040DE
:104350002C380020010003008200070080000700C5
:10436000840007000400001002000010400000104C
:104370000200030010AB0020403802401800024049
:1043800010ED00E00000024000040240000802407E
:10439000000C02400010024000CA9A3B7505F5FF70
:1043A00028280040200110040F03020103F0001030
:1043B000060F01020103C00010080F01020103C033
:1043C0000010060F01020103F00010060F010201A8
:1043D00003C80010040F02020103A80010020F031B
:1043E00002010300506002604160086070470A6883
:1043F000F8E748600160704701684068F9E7F8B580
:104400000600DFF8285802D505F15000F2BD05F18D
:1044100050040020A96E00E0096805F1680291428D
:1044200004D00C46A2689642F6D10120002831D172
:10443000286F076F182004F037FA0446A660002F93
:1044400005D0B74203D2B6FBF7F0784300E0304620
:10445000E060002F02D0B74200D23E462661002025
:104460002075DFF8CC673078401C307000F01BFD01
:104470007078401C707005F168012046FFF7B7FFA7
:104480007078401E7070C0B2002801D100F005FDA8
:1044900000F0ACFD2046F2BD38B5044694F9140096
:1044A00000281BD1DFF888572878401C287000F0BE
:1044B000FAFC6878401C68702046FFF79DFF204694
:1044C00004F00AFA6878401E6870C0B2002801D172
:1044D00000F0E3FCBDE8314000F088BD31BDF8B527
:1044E000044608466FF00045FFF789FF064694F939
:1044F000050094F90410814214D1C01C800004F01E
:10450000D3F9074694F90500012807DB82002168EA
:104510003846FEF7D6FD206804F0DEF927606079A2
:10452000C01C607194F90400411C2171216841F89C
:104530002060DFF80007864202D0307D401C3075D5
:10454000002008E0216851F820108A68954201DBBC
:104550001546A160401C94F904108842F2DBF1BDBD
:10456000F8B504466FF00046DFF8C02602F15005AA
:1045700002F150004FF0FF33002704E0664501DBF5
:10458000664675467F1C94F904C067450DDAD4F879
:1045900000C05CF827E0DEF808C0002BEED58C45A3
:1045A000ECD170463B465BB2ECE7002B11D4BCF17A
:1045B000010F0EDB06E0216801EB8306766841F807
:1045C00023605B1C94F904104E1EB342F3DB491EBA
:1045D000217102F15001884204D0017D491E01750C
:1045E000FFF75AFFA560F1BD10B4C26A836B406C3F
:1045F0009C68002C02D56FF0004300E01B698468C2
:10460000002C02D56FF0004000E00069984200DD08
:104610001846D2685143884201DB012000E00020A7
:1046200010BC704738B5DFF804160A6FB2F85C307A
:10463000012490F90850AC402343A2F85C3001F605
:104640009401FFF7D4FE012032BD10B5DFF8DC1570
:10465000096FB1F85C20012390F90840A3409A4308
:10466000A1F85C20FFF7C8FE012010BD01207047B3
:10467000F8B5044615461E4604F12400FFF72FFF47
:1046800006EB460004EB8007294607F13000FFF7F0
:1046900026FF97F9340000903346627A94F90810A7
:1046A0000FF29450FDF7D2FAF1BDF8B50446154665
:1046B0001E4604F12400FFF753FF06EB460004EB0F
:1046C0008007294607F13000FFF74AFF97F93400C9
:1046D00000903346627A94F908100FF26C50FDF79F
:1046E000B5FAF1BDC16A8A68012A09DB09690129A5
:1046F00006DA006D002801D50020704702207047BF
:104700000020704701EB410200EB8201896B8A684F
:10471000012A09DB0969012906DA006D002801D5A3
:10472000002070470220704700207047002900D504
:10473000D8E7E7E7012900DA012113460A4697E79F
:10474000012900DA012113460A46AEE7B1F57A7F66
:1047500001DC4FF47A7113460A464FF4FA7187E789
:10476000B1F57A7F01DC4FF47A7113460A464FF4B3
:10477000FA719AE710B50446002922D5E06A8168EB
:1047800001291CDB0069012819DA02212046FFF704
:104790002BFF002813D194F954004FF0FF318842C9
:1047A00004D1002084F85400012010BD002806D157
:1047B00001206077084684F85400022010BD0020D4
:1047C00010BDBDE810409DE7DFF86024126F126F46
:1047D00002F5FA72524202654FF0FF3280F854201F
:1047E00020E7C92900DAC82113460A4642213FE7DB
:1047F000C92900DAC82113460A46422155E710B5F7
:104800000446002926D5E06A8168012920DB006979
:1048100001281DDA03212046FFF7E6FE002817D104
:1048200094F954004FF0FF31884204D1002084F8FD
:104830005400012010BD002803D1012084F8540049
:1048400010BD012804D1084684F85400022010BD90
:10485000002010BDBDE8104054E7DFF8D023126FF0
:10486000126FC832524202654FF0FF3280F8542076
:10487000D8E6DFF8B823126F126FC83252420265D1
:10488000D0E613464FF0FF321146F1E613464FF0E3
:10489000FF32114609E780B5FFF7C4FEFDF75BF96B
:1048A00000210175012002BD80B5FFF7CEFEFDF7A6
:1048B00052F900210175012002BDDC48C06A417A2D
:1048C000481E8041C00F704780B5D8480068417AC3
:1048D000002902D1006E40688047012002BD80B5EA
:1048E000FFF7B3FED1480068417A002902D1006E7B
:1048F00080688047012002BD2DE9F0410C46CB4D78
:1049000055F82060307206F154070FF24C313961CE
:10491000132800F22581DFE810F014002400300095
:1049200048003C005400630072009F00810090002A
:10493000AE00BD00CA00D700E400F100FE000A018D
:10494000170106F10800062141760A21817605F655
:104950009C01416040F2DC5181600FF2C03038614F
:10496000FEE006F10800062141760A21817605F66F
:104970007861416064218160F2E006F108000C2159
:1049800041761021817605F6E86141601021816051
:10499000E6E006F10800072141760B21817605F655
:1049A000DC6141600B218160DAE006F1080006213C
:1049B00041760A21817605F6F86141600A2181601D
:1049C000CEE006F10800062141760A21817605F63F
:1049D000047141600A2181600FF2B4203861BFE0A8
:1049E00006F10800142141761821817605F6107130
:1049F0004160182181600FF208303861B0E006F1A3
:104A00000800022141760621817605F64471416055
:104A1000062181600FF2B0203861A1E006F10800A4
:104A20000A2141760E21817605F6347141600E210E
:104A300081600FF27820386192E006F108000121D0
:104A400041760521817605F64C7141600521816032
:104A50000FF29020386183E006F1080005214176CD
:104A60000921817605F628714160092181600FF2E4
:104A70000420386174E006F10800062141760A211D
:104A8000817605F6547141600A2181600FF2A820F9
:104A9000386165E006F10800012141760521817643
:104AA00005F66071416040F28661816058E006F170
:104AB0000800012141760521817605F5A851E831EC
:104AC0004160052181604BE006F108000C21417630
:104AD0001021817605F5A851F031416010218160E7
:104AE0003EE006F10800112141761521817605F599
:104AF000B051416041F66631816031E006F1080055
:104B0000112141761521817605F5445168314160C6
:104B10001521816024E006F1080004214176082176
:104B2000817605F5465141600821816018E006F163
:104B30000800062141760A21817605F54451883125
:104B400041600A2181600BE006F1080006214176F0
:104B50000A21817605F54451943141600A21816032
:104B600006F1080000210175417581750176C1606B
:104B70000161417006F128080846C8F828004FF086
:104B8000FF3086F854007880062206F15800FDF7C1
:104B9000BDFE002010E000EB400106EB8101002289
:104BA00081F8342034314A7005F150024A6006EB36
:104BB000800100228A64401C0228ECDB002086F879
:104BC000280088F8010005F15000C8F80400FC60D6
:104BD000BDE8F08110B5154CFDF726FB20670020DD
:104BE00006E0682111FB0041743144F82010401C9C
:104BF0001428F6DB4FF0FF30A065E065002020664A
:104C000005F050F805F02FFE06F0ADFAFCF76EF84F
:104C100006F02EFCFCF73EFBFCF718FD06F08CFDC1
:104C200007F051F8BDE8104007F020B9000000205F
:104C300024370020500000204144202564202564B2
:104C40002025642025640000524D20256420256421
:104C500020256420256400006D46000825460008D4
:104C60006D4600084B4600083547000841470008DC
:104C70002D4700086D460008C94700086D4600082A
:104C80004B4600084D47000861470008754700087B
:104C90006D4600085B4800086D4600084B4600085A
:104CA000E3470008F1470008FF4700086D46000889
:104CB000734800086D4600084B4600083547000859
:104CC000414700082D4700086D4600089748000836
:104CD0006D460008A9480008834800088D48000870
:104CE0002D4700086D460008254600086D4600085F
:104CF0004B46000835470008414700082D4700088B
:104D00006D460008254600086D4600084B46000821
:104D1000834800088D4800082D470008BB4800085C
:104D200025460008BB4800084B46000835470008E8
:104D3000414700082D470008C948000825460008DB
:104D40006D460008DF480008834800088D480008C9
:104D50002D470008002207F0A9B88268521C826023
:104D6000426832B10268531C036011704168491EE9
:104D70004160704708B584B00023029311B90093D5
:104D8000019302E00090481E019004AB00A907487F
:104D90007844183007F0A4F8009909B100220A708D
:104DA000002858BF029805B000BD00BFAFFFFFFF4D
:104DB00000F10103810704D010F8011B89B18107BC
:104DC000FAD10268B2F10131914311F0803F04BF82
:104DD00050F8042FF6E710F8011B11B110F8011B71
:104DE000FBE7C01A70470268531C036011707047DC
:104DF00030488168002904BF08B008E0EFF3098259
:104E0000A2F12802036882E8F84F83685A6000F034
:104E10009CF8816859B14A6892E8F84F036002F142
:104E2000280282F3098813F47F4F36D07047224856
:104E300022490968401A80F308884FF08071C161E7
:104E40001F4981617FF0060E704701BC2046DFF8E4
:104E500074E000BDFEE71C48006818490968401A64
:104E6000203820F0070080F308884FF0000181F31C
:104E7000118862B600F00DF8FEE74FF0000181F3F3
:104E800011881249124A0A604FF0800181F311889B
:104E900070470E490E4A0A6070474FF0000181F3D7
:104EA0001188704700BF4FF0800181F3118870476F
:104EB00000BF000024370020E0CB00207CAC0208BB
:104EC000E1A20208554E00080000000804ED00E0D1
:104ED0000000001030B504460020A071206A81B0A7
:104EE00000F57A606062E16908001CBF20468847CF
:104EF000FFF7D3FFE5681FE0FFF7D5FF206920B17A
:104F0000687C2169497C88421DD3287C400710D5E4
:104F1000E868216A401A012806DA284600F082F87B
:104F2000FFF7C1FF287C70B1E868616A411A48BF89
:104F30006062FFF7B2FF2D68002DDDD101B0BDE842
:104F40003040FFF7B0BF01B030BD70B5044600205F
:104F5000607001202070206938B303E02868206168
:104F6000FFF79BFFFFF79FFF2569002D1CBF2E7CDD
:104F7000002E1CD070070ED5E868216A411A01295D
:104F800005DA284600F04EF8287C20B90DE0616A69
:104F9000411A48BF606206F0FB001028DED1A86805
:104FA00080684068007C0028D8D1FFF77CFFA0799A
:104FB00068B900206071206990B12069007C0028E8
:104FC00020690BD0806880684068A0600CE02046B3
:104FD000FFF780FFA0790028F9D1EAE7A06003E09D
:104FE000A0602070FFF759FF204670BD10B5444CFB
:104FF0002078401E2070C0B298B9606888B1FFF771
:1050000052FF606830B1012020702046FFF735FF65
:10501000002020706078002804BFBDE81040FFF732
:105020003CBF10BD10B5816849B1354A126AC260F3
:105030000A68496802B151600A6000218160017C00
:1050400011F0030101741BD12D4C216991B920612C
:10505000207838B9012020702046FFF70EFF00208D
:10506000207001E001206071607848B9BDE810400F
:10507000FFF713BF4A7C437C9A42E8D38142E7D0D2
:1050800010BD30B51E4D04462978607C81B0491CA6
:10509000297005F20C0100E011460A6812B1537C38
:1050A0009842F9DB22600C60207C40B9FFF7FBFEE0
:1050B0002046FFF7B7FF687808B9FFF7EEFE01B0AA
:1050C000BDE8304092E730B50D4C81B02578681CC2
:1050D00020702046FFF7D1FE2570607820B901B01E
:1050E000BDE83040FFF7D9BE01B030BD00B581B09A
:1050F00007F05EFD02480121017001B000BD000013
:1051000024370020DFF8A40D007870472DE9F04126
:105110008CB0FDF789F80446DFF8945D2E6841E015
:1051200096F9080007283CD00B283ADA062838D030
:1051300006F10807B86C002802D5216F0818B8647A
:105140004FF0FF313046FA6D926990478046B8F1D2
:10515000010F04D197F84C00B96D09698847B8F17F
:10516000020F0BD1797E38697A688018BA6D52695E
:105170009047002802D0304607F0D0FD002130468D
:10518000FA6D92699047022801D10120B87501217A
:105190003046FA6D92699047022802D1304607F0F6
:1051A0006BFE3668AE42BBD1D4E91801002901D1AB
:1051B00000280BD00A208DF8080002208DF800008E
:1051C000206FADF82A0000A801F052FD01200CB0BC
:1051D000BDE8F08130B585B004460D46CA208DF893
:1051E00000002888ADF801000220ADF80300BDF8EA
:1051F0000100001D03F058FBCDF8090002220DF15B
:105200000301FDF75EFF02222946DDF80900801C3C
:10521000FDF757FF2A882146DDF80900001DFDF73C
:1052200050FF0020288000A9DFF8880C08F01AF948
:1052300005B030BDC0F58060322801DA012070472A
:105240000020704780B5FCF786FC407B002804D026
:1052500007F0D2FCDFF8601C086001BD80B507F0E4
:10526000CBFCDFF8581C086001BDDFF8500C00686B
:10527000704718B400F10C030422DFF8401C5C7D79
:10528000DB68C0681818201818BCFDF71ABF30B4C6
:105290001488651C1580052565541488651C1580C7
:1052A000635413885C1C1480007A585430BC7047D7
:1052B000F8B50E4614461D4629884A1C2A80372216
:1052C0000A5529884A1C2A80027A0A5500F10807E3
:1052D0007A7E7868311828880019FDF7F2FE288850
:1052E000797E40182880787E796871184058DFF8F8
:1052F000C81B0968401A0090042200A928880019D8
:10530000FDF7DFFE2888001D288080B2FFF792FF9E
:10531000002803D029462046FFF75CFFF1BD2DE9A8
:10532000F04104460D4616461F46DDF8188008E099
:1053300043463A4629462046FFF7BAFF94F8220032
:105340002D18B542F4DBBDE8F081F8B504461546EA
:105350001E46069F00972269FFF7E1FF20698542FC
:1053600006DA009733462A4600212046FFF7D7FF8A
:10537000F1BD00F110018A688B7CD2188A60006947
:10538000824201D10020886000208873704770B588
:1053900082B000F1140674684569002D07D50092AB
:1053A0000B462246B17B6118FFF7CFFF73BDAC42BD
:1053B00000920B462246294602DAFFF7C6FF73BD6C
:1053C000FFF7ADFF73BD70B504460D461646FFF7F7
:1053D000DEFF0123324629462046FFF758FFA06929
:1053E000606170BD2DE9F84304460D461646FCF792
:1053F0001BFF8046FCF7AFFB81462046FFF739FFD5
:1054000004F10807386C012849DB99F80A000028E4
:1054100021D0B87D002879D000207864B87E3A6920
:10542000F9688B1A834205D0002910D1BB689B1AFA
:1054300083420CD13B7E002B06D000962B4682186F
:105440002046FFF782FF02E04FF0FF30F860204671
:10545000BDE8F2438DE7786CD8F87010401A786494
:10546000012815DA386C7864324629462046FFF761
:105470008EFFB87D002808D033462A463969204679
:10548000FFF716FF2046FFF774FF3869F8603DE02C
:10549000B87D00283AD02046BDE8F24369E7B87DE0
:1054A000002833D094F9080099F80A1000291BD07D
:1054B000092801D0072805D133462A4639692046F4
:1054C000FFF7F6FE94F9080008281AD197F92C0086
:1054D000012816DB386B8068B0F57A7F0BD1B7F9FD
:1054E0004E00012807DA11E0082804D1DFF8540C37
:1054F000406800280AD133462A4639692046FFF71A
:10550000D7FE2046FFF735FF3869F860BDE8F18324
:10551000F8B504460D46DFF89869376805E02A4675
:1055200021463846FFF75EFF3F68B742F7D1F1BD2D
:105530002DE9F04104460D46DFF80C6CF76907F1E0
:105540000C0898F81510D8F80C00FA688018D8F8EC
:1055500054205269904700280AD0012088F8120090
:10556000787A002804D02A4621463846FFF73AFFC9
:10557000B66906F10C07797DF868F26880187A6DD3
:1055800052699047002809D00120B874707A002829
:1055900004D02A4621463046FFF724FF0120BDE80B
:1055A000F0810288D21C02800A80704780B50B8887
:1055B0009B1AADF80030BDF80030002B09D0101850
:1055C000012100F8031C022200A9801EFDF779FDCD
:1055D00001BD0888C01E088001BD2DE9F04FADF661
:1055E000AC0D04460D46FCF71FFE8046FCF7B3FAEF
:1055F000074610A840F66801FFF7ACFB00208DF8C5
:10560000020006A82821FFF7A5FB01A81421FFF737
:10561000A1FB0020ADF800000646D8E918010029DA
:1056200002D1002800F0E58297F9090008F0A9FBF3
:10563000002800F0DE8200A92846FFF7B2FF3746B7
:105640001BE0012031463A4608F088FDD8E91823CE
:105650001040194001D100280ED007EB8700DFF879
:10566000EC1A01EBC00292F90900012804D10DF1F6
:10567000020110A8126A90477F1C262FE1DB3746F3
:105680001AE02888411C298099F8021001552888C1
:10569000FFF7D0FD00280DD0BDF800202946204698
:1056A000FFF784FF29462046FFF794FD00A928460E
:1056B000FFF777FF7F1C7FB29DF80200874280F2E0
:1056C00090822988481C288040F20D1010FB07F0BA
:1056D00010AA825C0A5529884A1C2A8010AA00EB6D
:1056E000020898F8010008552888411C298008F113
:1056F000010999F80110015599F80100032815D006
:10570000092800F030810C2800F00A811A2800F0E6
:1057100020821B2800F03D811C2800F04E821D28AD
:1057200000F049811E2800F03882AAE798F80100AD
:10573000032805D12888411C298099F802100155B9
:105740002888411C298099F803100155711C99F88B
:10575000030000064ED401A899F804203254C9B2BF
:1057600099F805200A54491CC9B200220A54491C60
:10577000C9B299F806200A54491CB8F80E20C9B2DB
:10578000130A0B54491CC9B20A54491C08F20E02F0
:10579000C9B293780B54491CC9B2D2780A54491C37
:1057A000C9B298F812200A54491CC9B298F81320BB
:1057B0000A54491CC9B299F807200A54491CC9B2B5
:1057C00099F808200A54491CC9B299F809200A54CA
:1057D000491CC9B299F80A200A544E1CF6B2324646
:1057E00001A928880019FDF76CFC288850FA86F07A
:1057F00028804CE7D9F8042006A8130C3354C9B20A
:10580000130A0B54491CC9B20A54491CD9F8082080
:10581000C9B2130C0B54491CC9B2130A0B54491CCE
:10582000C9B20A54491CD9F80C20C9B2130C0B5444
:10583000491CC9B2130A0B54491CC9B20A54491C69
:10584000D8F81120C9B2130C0B54491CC9B2130A61
:105850000B54491CC9B20A54491CD8F82720C9B2B4
:10586000130C0B54491CC9B2130A0B54491CC9B27E
:105870000A544A1C08F22701D2B20B791354521C65
:10588000D2B24B791354521CCB88D2B21E0A165492
:10589000521CD2B21354521CD2B2097A1154511C68
:1058A000D8F81520C9B2130C0B54491CC9B2130AFD
:1058B0000B54491CC9B20A54491CD8F81920C9B262
:1058C000130C0B54491CC9B2130A0B54491CC9B21E
:1058D0000A54491CD8F81D20C9B2130C0B54491C9A
:1058E000C9B2130A0B54491CC9B20A54491CD8F84E
:1058F0002120C9B2130C0B54491CC9B2130A0B5412
:10590000491CC9B20A544E1CF6B2324606A9288870
:105910000019FDF7D6FB288850FA86F02880B6E6F5
:1059200008F20301B1F90300C0F3072242EA0020A4
:10593000A1F80300B1F90700C0F3072242EA0020F2
:10594000A1F80700B1F90500C0F3072242EA0020E0
:10595000A1F80500092228880019FDF7B2FB288864
:105960000930288093E698F8010003280AD1022222
:1059700008F1030128880019FDF7A3FB2888801C83
:10598000288084E62888411C298099F80210015556
:105990007DE62888411C298099F80210015598F865
:1059A000010005287FF473AE2888411C298099F8EE
:1059B000041001556BE608F2030998F8010001286C
:1059C00040F0B7802888411C298099F804100155BF
:1059D0004FF0000A94E0192010FB0A9BDBF80C2022
:1059E000DBF808100FF21420FCF730F9DBF8180090
:1059F000010221F0FF11000A00F0FF100843CBF86C
:105A000018004FEA3040CBF8180004220BF11801BF
:105A100028880019FDF755FB2888001D2880DBF831
:105A20000800010221F0FF11000A00F0FF100843F6
:105A3000CBF808004FEA3040CBF8080004220BF105
:105A4000080128880019FDF73CFB2888001D2880E4
:105A5000DBF80C00010221F0FF11000A00F0FF103A
:105A60000843CBF80C004FEA3040CBF80C0004227E
:105A70000BF10C0128880019FDF723FB2888001D75
:105A80002880DBF81000010221F0FF11000A00F06D
:105A9000FF100843CBF810004FEA3040CBF810005D
:105AA00004220BF1100128880019FDF70AFB288851
:105AB000001D2880BBF81C00010A41EA0020ABF859
:105AC0001C0002220BF11C0128880019FDF7F9FACD
:105AD0002888801C2880BBF81600010A41EA0020B3
